{
  "contractName": "Voting",
  "abi": [
    {
      "constant": true,
      "inputs": [
        {
          "name": "",
          "type": "bytes32"
        }
      ],
      "name": "votesCnt",
      "outputs": [
        {
          "name": "",
          "type": "uint256"
        }
      ],
      "payable": false,
      "stateMutability": "view",
      "type": "function"
    },
    {
      "constant": false,
      "inputs": [
        {
          "name": "candidate",
          "type": "bytes32"
        }
      ],
      "name": "addCandidate",
      "outputs": [],
      "payable": false,
      "stateMutability": "nonpayable",
      "type": "function"
    },
    {
      "constant": true,
      "inputs": [
        {
          "name": "candidate",
          "type": "bytes32"
        }
      ],
      "name": "isValidCandidate",
      "outputs": [
        {
          "name": "",
          "type": "bool"
        }
      ],
      "payable": false,
      "stateMutability": "view",
      "type": "function"
    },
    {
      "constant": true,
      "inputs": [
        {
          "name": "candidate",
          "type": "bytes32"
        }
      ],
      "name": "totalVotesFor",
      "outputs": [
        {
          "name": "",
          "type": "uint256"
        }
      ],
      "payable": false,
      "stateMutability": "view",
      "type": "function"
    }
  ],
  "bytecode": "0x6060604052341561000f57600080fd5b6102c58061001e6000396000f300606060405260043610610062576000357c0100000000000000000000000000000000000000000000000000000000900463ffffffff168063230d6ed8146100675780632f265cf71461008e5780638c1d9f30146100c9578063beb5d95914610108575b600080fd5b341561007257600080fd5b61008c600480803560001916906020019091905050610143565b005b341561009957600080fd5b6100b3600480803560001916906020019091905050610195565b6040518082815260200191505060405180910390f35b34156100d457600080fd5b6100ee6004808035600019169060200190919050506101d2565b604051808215151515815260200191505060405180910390f35b341561011357600080fd5b61012d600480803560001916906020019091905050610230565b6040518082815260200191505060405180910390f35b6000806000836000191660001916815260200190815260200160002081905550600180548060010182816101779190610248565b91600052602060002090016000839091909150906000191690555050565b60006101a0826101d2565b15156101af57600090506101cd565b60008083600019166000191681526020019081526020016000205490505b919050565b600080600090505b6001805490508110156102255782600019166001828154811015156101fb57fe5b90600052602060002090015460001916141561021a576001915061022a565b8060010190506101da565b600091505b50919050565b60006020528060005260406000206000915090505481565b81548183558181151161026f5781836000526020600020918201910161026e9190610274565b5b505050565b61029691905b8082111561029257600081600090555060010161027a565b5090565b905600a165627a7a72305820ac7ede6db4582f714662d4f3b85f8f2653bdec2e893374fbc67e7a07ac4acd690029",
  "source": "pragma solidity ^0.4.18;\n\ncontract Voting {\n    mapping(bytes32 => uint) public votesCnt;\n    bytes32[] candidates;\n\n    function addCandidate(bytes32 candidate) public {\n        votesCnt[candidate] = 0;\n        candidates.push(candidate);\n    }\n\n    function isValidCandidate(bytes32 candidate)\n        public view returns (bool) {\n\n        for (uint i = 0; i < candidates.length; ++i) {\n            if (candidates[i] == candidate) {\n                return true;\n            }\n        }\n\n        return false;\n    }\n\n    function totalVotesFor(bytes32 candidate) public view returns (uint) {\n        if (!isValidCandidate(candidate)) {\n            return 0;\n        }\n\n        return votesCnt[candidate];\n    }\n}\n",
  "sourcePath": "/home/pmihaylov/programming/repositories/blockchain-devcamp-softuni-2018/11.DApps-basics/voting-system/contracts/Voting.sol",
  "compiler": {
    "name": "solc",
    "version": "0.4.19+commit.c4cbbb05.Emscripten.clang"
  },
  "schemaVersion": "1.0.1",
  "updatedAt": "2018-02-19T18:57:08.895Z"
}